{
  "contractName": "TodoContract",
  "abi": [
    {
      "anonymous": false,
      "inputs": [
        {
          "indexed": false,
          "internalType": "string",
          "name": "task",
          "type": "string"
        },
        {
          "indexed": false,
          "internalType": "uint256",
          "name": "taskNumber",
          "type": "uint256"
        }
      ],
      "name": "TaskCreated",
      "type": "event"
    },
    {
      "anonymous": false,
      "inputs": [
        {
          "indexed": false,
          "internalType": "uint256",
          "name": "taskNumber",
          "type": "uint256"
        }
      ],
      "name": "TaskDeleted",
      "type": "event"
    },
    {
      "anonymous": false,
      "inputs": [
        {
          "indexed": false,
          "internalType": "string",
          "name": "task",
          "type": "string"
        },
        {
          "indexed": false,
          "internalType": "uint256",
          "name": "taskId",
          "type": "uint256"
        },
        {
          "indexed": false,
          "internalType": "bool",
          "name": "isComplete",
          "type": "bool"
        }
      ],
      "name": "TaskIsCompleteToggled",
      "type": "event"
    },
    {
      "anonymous": false,
      "inputs": [
        {
          "indexed": false,
          "internalType": "string",
          "name": "task",
          "type": "string"
        },
        {
          "indexed": false,
          "internalType": "uint256",
          "name": "taskId",
          "type": "uint256"
        }
      ],
      "name": "TaskUpdated",
      "type": "event"
    },
    {
      "inputs": [],
      "name": "taskCount",
      "outputs": [
        {
          "internalType": "uint256",
          "name": "",
          "type": "uint256"
        }
      ],
      "stateMutability": "view",
      "type": "function",
      "constant": true
    },
    {
      "inputs": [
        {
          "internalType": "uint256",
          "name": "",
          "type": "uint256"
        }
      ],
      "name": "todos",
      "outputs": [
        {
          "internalType": "uint256",
          "name": "index",
          "type": "uint256"
        },
        {
          "internalType": "string",
          "name": "taskName",
          "type": "string"
        },
        {
          "internalType": "bool",
          "name": "isComplete",
          "type": "bool"
        }
      ],
      "stateMutability": "view",
      "type": "function",
      "constant": true
    },
    {
      "inputs": [
        {
          "internalType": "string",
          "name": "_taskName",
          "type": "string"
        }
      ],
      "name": "createTask",
      "outputs": [],
      "stateMutability": "nonpayable",
      "type": "function"
    },
    {
      "inputs": [
        {
          "internalType": "uint256",
          "name": "_taskId",
          "type": "uint256"
        },
        {
          "internalType": "string",
          "name": "_taskName",
          "type": "string"
        }
      ],
      "name": "updateTask",
      "outputs": [],
      "stateMutability": "nonpayable",
      "type": "function"
    },
    {
      "inputs": [
        {
          "internalType": "uint256",
          "name": "_taskId",
          "type": "uint256"
        }
      ],
      "name": "toggleComplete",
      "outputs": [],
      "stateMutability": "nonpayable",
      "type": "function"
    },
    {
      "inputs": [
        {
          "internalType": "uint256",
          "name": "_taskId",
          "type": "uint256"
        }
      ],
      "name": "deleteTask",
      "outputs": [],
      "stateMutability": "nonpayable",
      "type": "function"
    }
  ],
  "bytecode": "0x60806040526000805534801561001457600080fd5b50610e62806100246000396000f3fe608060405234801561001057600080fd5b50600436106100625760003560e01c80630951e5bd14610067578063111002aa14610083578063560f31921461009f57806386533f6c146100bb578063b6cb58a5146100d7578063bc8bc2b4146100f5575b600080fd5b610081600480360381019061007c9190610712565b610127565b005b61009d60048036038101906100989190610885565b6102c4565b005b6100b960048036038101906100b49190610712565b61039c565b005b6100d560048036038101906100d091906108ce565b610418565b005b6100df6105a6565b6040516100ec9190610939565b60405180910390f35b61010f600480360381019061010a9190610712565b6105ac565b60405161011e939291906109f7565b60405180910390f35b6000600160008381526020019081526020016000206040518060600160405290816000820154815260200160018201805461016190610a64565b80601f016020809104026020016040519081016040528092919081815260200182805461018d90610a64565b80156101da5780601f106101af576101008083540402835291602001916101da565b820191906000526020600020905b8154815290600101906020018083116101bd57829003601f168201915b505050505081526020016002820160009054906101000a900460ff16151515158152505090506040518060600160405280838152602001826020015181526020018260400151151515815250600160008481526020019081526020016000206000820151816000015560208201518160010190816102589190610c41565b5060408201518160020160006101000a81548160ff0219169083151502179055509050507f21d25b1182ece704b24eedd00ef3879b75f4bd2e9a3137cfde0c6405b28ce78c8160200151838360400151156040516102b893929190610d13565b60405180910390a15050565b604051806060016040528060005481526020018281526020016000151581525060016000805481526020019081526020016000206000820151816000015560208201518160010190816103179190610c41565b5060408201518160020160006101000a81548160ff02191690831515021790555090505060008081548092919061034d90610d80565b91905055507fed1d390c812a65783a09786b88b832ef75bb16882fbc56eeea9bf61a4c1a8ac78160016000546103839190610dc8565b604051610391929190610dfc565b60405180910390a150565b600160008281526020019081526020016000206000808201600090556001820160006103c8919061066b565b6002820160006101000a81549060ff021916905550507fd078b251d950cc55c44340be1db732337ef4939a76e1367ee271ad2cb19c46af8160405161040d9190610939565b60405180910390a150565b6000600160008481526020019081526020016000206040518060600160405290816000820154815260200160018201805461045290610a64565b80601f016020809104026020016040519081016040528092919081815260200182805461047e90610a64565b80156104cb5780601f106104a0576101008083540402835291602001916104cb565b820191906000526020600020905b8154815290600101906020018083116104ae57829003601f168201915b505050505081526020016002820160009054906101000a900460ff1615151515815250509050604051806060016040528084815260200183815260200182604001511515815250600160008581526020019081526020016000206000820151816000015560208201518160010190816105449190610c41565b5060408201518160020160006101000a81548160ff0219169083151502179055509050507fa19b2211615873e8fbe860460ba43e467bf8f2d28d98b023144fc0739af842cd8284604051610599929190610dfc565b60405180910390a1505050565b60005481565b60016020528060005260406000206000915090508060000154908060010180546105d590610a64565b80601f016020809104026020016040519081016040528092919081815260200182805461060190610a64565b801561064e5780601f106106235761010080835404028352916020019161064e565b820191906000526020600020905b81548152906001019060200180831161063157829003601f168201915b5050505050908060020160009054906101000a900460ff16905083565b50805461067790610a64565b6000825580601f1061068957506106a8565b601f0160209004906000526020600020908101906106a791906106ab565b5b50565b5b808211156106c45760008160009055506001016106ac565b5090565b6000604051905090565b600080fd5b600080fd5b6000819050919050565b6106ef816106dc565b81146106fa57600080fd5b50565b60008135905061070c816106e6565b92915050565b600060208284031215610728576107276106d2565b5b6000610736848285016106fd565b91505092915050565b600080fd5b600080fd5b6000601f19601f8301169050919050565b7f4e487b7100000000000000000000000000000000000000000000000000000000600052604160045260246000fd5b61079282610749565b810181811067ffffffffffffffff821117156107b1576107b061075a565b5b80604052505050565b60006107c46106c8565b90506107d08282610789565b919050565b600067ffffffffffffffff8211156107f0576107ef61075a565b5b6107f982610749565b9050602081019050919050565b82818337600083830152505050565b6000610828610823846107d5565b6107ba565b90508281526020810184848401111561084457610843610744565b5b61084f848285610806565b509392505050565b600082601f83011261086c5761086b61073f565b5b813561087c848260208601610815565b91505092915050565b60006020828403121561089b5761089a6106d2565b5b600082013567ffffffffffffffff8111156108b9576108b86106d7565b5b6108c584828501610857565b91505092915050565b600080604083850312156108e5576108e46106d2565b5b60006108f3858286016106fd565b925050602083013567ffffffffffffffff811115610914576109136106d7565b5b61092085828601610857565b9150509250929050565b610933816106dc565b82525050565b600060208201905061094e600083018461092a565b92915050565b600081519050919050565b600082825260208201905092915050565b60005b8381101561098e578082015181840152602081019050610973565b8381111561099d576000848401525b50505050565b60006109ae82610954565b6109b8818561095f565b93506109c8818560208601610970565b6109d181610749565b840191505092915050565b60008115159050919050565b6109f1816109dc565b82525050565b6000606082019050610a0c600083018661092a565b8181036020830152610a1e81856109a3565b9050610a2d60408301846109e8565b949350505050565b7f4e487b7100000000000000000000000000000000000000000000000000000000600052602260045260246000fd5b60006002820490506001821680610a7c57607f821691505b602082108103610a8f57610a8e610a35565b5b50919050565b60008190508160005260206000209050919050565b60006020601f8301049050919050565b600082821b905092915050565b600060088302610af77fffffffffffffffffffffffffffffffffffffffffffffffffffffffffffffffff82610aba565b610b018683610aba565b95508019841693508086168417925050509392505050565b6000819050919050565b6000610b3e610b39610b34846106dc565b610b19565b6106dc565b9050919050565b6000819050919050565b610b5883610b23565b610b6c610b6482610b45565b848454610ac7565b825550505050565b600090565b610b81610b74565b610b8c818484610b4f565b505050565b5b81811015610bb057610ba5600082610b79565b600181019050610b92565b5050565b601f821115610bf557610bc681610a95565b610bcf84610aaa565b81016020851015610bde578190505b610bf2610bea85610aaa565b830182610b91565b50505b505050565b600082821c905092915050565b6000610c1860001984600802610bfa565b1980831691505092915050565b6000610c318383610c07565b9150826002028217905092915050565b610c4a82610954565b67ffffffffffffffff811115610c6357610c6261075a565b5b610c6d8254610a64565b610c78828285610bb4565b600060209050601f831160018114610cab5760008415610c99578287015190505b610ca38582610c25565b865550610d0b565b601f198416610cb986610a95565b60005b82811015610ce157848901518255600182019150602085019450602081019050610cbc565b86831015610cfe5784890151610cfa601f891682610c07565b8355505b6001600288020188555050505b505050505050565b60006060820190508181036000830152610d2d81866109a3565b9050610d3c602083018561092a565b610d4960408301846109e8565b949350505050565b7f4e487b7100000000000000000000000000000000000000000000000000000000600052601160045260246000fd5b6000610d8b826106dc565b91507fffffffffffffffffffffffffffffffffffffffffffffffffffffffffffffffff8203610dbd57610dbc610d51565b5b600182019050919050565b6000610dd3826106dc565b9150610dde836106dc565b925082821015610df157610df0610d51565b5b828203905092915050565b60006040820190508181036000830152610e1681856109a3565b9050610e25602083018461092a565b939250505056fea26469706673582212205d4075b5b3423cce7600b1b0b1922db0f924fb8e4ab60462fbd21e63e87e8df564736f6c634300080f0033",
  "immutableReferences": {},
  "source": "// SPDX-License-Identifier: GPL-3.0\npragma solidity ^0.8.4;\n\ncontract TodoContract {\n    uint256 public taskCount = 0;\n\n    struct Task {\n        uint256 index;\n        string taskName;\n        bool isComplete;\n    }\n\n    mapping(uint256 => Task) public todos;\n    //1.to-do\n    event TaskCreated(string task, uint256 taskNumber);\n    //2.to-do\n    event TaskUpdated(string task, uint256 taskId);\n    //3.to-do\n    event TaskIsCompleteToggled(string task, uint256 taskId, bool isComplete);\n    //4.to-do\n    event TaskDeleted(uint256 taskNumber);\n\n    function createTask(string memory _taskName) public {\n        todos[taskCount] = Task(taskCount, _taskName, false);\n        taskCount++;\n        emit TaskCreated(_taskName, taskCount - 1);\n    }\n\n    function updateTask(uint256 _taskId, string memory _taskName) public {\n        Task memory currTask = todos[_taskId];\n        todos[_taskId] = Task(_taskId, _taskName, currTask.isComplete);\n        emit TaskUpdated(_taskName, _taskId);\n    }\n\n    function toggleComplete(uint256 _taskId) public {\n        Task memory currTask = todos[_taskId];\n        todos[_taskId] = Task(_taskId, currTask.taskName, !currTask.isComplete);\n\n        emit TaskIsCompleteToggled(\n            currTask.taskName,\n            _taskId,\n            !currTask.isComplete\n        );\n    }\n\n    function deleteTask(uint256 _taskId) public {\n        delete todos[_taskId];\n        emit TaskDeleted(_taskId);\n    }\n}\n",
  "sourcePath": "/Users/sora/Documents/work/solidity/UNCHAIN/todo-dApp/todo-dApp-contract/contracts/TodoContract.sol",
  "compiler": {
    "name": "solc",
    "version": "0.8.15+commit.e14f2714.Emscripten.clang"
  },
  "schemaVersion": "3.4.8",
  "updatedAt": "2022-07-27T08:25:51.348Z",
  "networkType": "ethereum",
  "devdoc": {
    "kind": "dev",
    "methods": {},
    "version": 1
  },
  "userdoc": {
    "kind": "user",
    "methods": {},
    "version": 1
  }
}